:020000040800F2
:1000000000000220970200089102000891020008F7
:10001000910200089102000891020008000000000F
:100020000000000000000000000000009102000835
:1000300091020008000000009102000891020008EF
:100040009102000891020008910200089102000844
:100050009102000891020008910200089102000834
:100060009102000891020008910200089102000824
:100070009102000891020008910200089102000814
:100080009102000891020008910200089102000804
:1000900091020008910200089102000891020008F4
:1000A00091020008910200089102000891020008E4
:1000B00091020008910200089102000891020008D4
:1000C00091020008910200089102000891020008C4
:1000D00091020008910200089102000891020008B4
:1000E00091020008910200089102000891020008A4
:1000F0009102000891020008910200089102000894
:100100009102000891020008910200089102000883
:100110009102000891020008910200089102000873
:100120009102000891020008910200089102000863
:100130009102000891020008910200089102000853
:100140009102000891020008910200089102000843
:100150009102000891020008910200089102000833
:100160009102000891020008910200089102000823
:100170009102000891020008910200089102000813
:100180009102000891020008910200089102000803
:1001900091020008910200089102000891020008F3
:1001A00091020008910200089102000891020008E3
:1001B00091020008910200089102000891020008D3
:1001C00091020008910200089102000880B483B0F7
:1001D00000AF00237B60294A284B1B6843F00203D1
:1001E00013602749264B1A68264B13430B60264B96
:1001F00000221A60254A254B1B6883F48043136054
:10020000224A224B1B6883F00103136000237B60AA
:1002100002E07B6801337B607B6842F20F7293429D
:10022000F7D900237B6002E07B6801337B607B6849
:1002300042F20F729342F7D900237B6002E07B68A1
:1002400001337B607B6842F20F729342F7D900233F
:100250007B6002E07B6801337B607B6842F20F7257
:100260009342F7D900237B6002E07B6801337B6017
:100270007B6842F20F729342F7D9BBE730380240F5
:10028000000402400140001008040240140402402F
:1002900080B400AFFEE780B584B000AF1B4A1C4BB2
:1002A000D31A9B103B601A4BBB601A4B7B60002338
:1002B000FB600AE0BB681A1DBA607A68111D79609C
:1002C00012681A60FB680133FB60FA683B689A4267
:1002D000F0D3114A114BD31A9B103B600F4BBB60FC
:1002E0000023FB6007E0BB681A1DBA6000221A6099
:1002F000FB680133FB60FA683B689A42F3D3FFF76F
:1003000065FF00BF1037BD4680BD00BF0000002064
:100310000000002020030008000000200000002052
:040000050800029756
:00000001FF
